8=FIX.4.4|9=76|35=A|34=1|49=CLIENT1|52=20180315-07:09:41.788|56=EXECUTOR|98=0|108=30|141=Y|10=159|8=FIX.4.4|9=105|35=D|34=2|49=CLIENT1|52=20180315-07:09:43.535|56=EXECUTOR|11=321|41=123|54=1|55=LNUX|58=Cancel My Order!|10=200|8=FIX.4.4|9=105|35=D|34=3|49=CLIENT1|52=20180315-07:09:45.772|56=EXECUTOR|11=321|41=123|54=1|55=LNUX|58=Cancel My Order!|10=206|8=FIX.4.4|9=105|35=D|34=4|49=CLIENT1|52=20180315-07:09:46.333|56=EXECUTOR|11=321|41=123|54=1|55=LNUX|58=Cancel My Order!|10=201|8=FIX.4.4|9=105|35=D|34=5|49=CLIENT1|52=20180315-07:09:46.724|56=EXECUTOR|11=321|41=123|54=1|55=LNUX|58=Cancel My Order!|10=206|8=FIX.4.4|9=105|35=D|34=6|49=CLIENT1|52=20180315-07:09:47.332|56=EXECUTOR|11=321|41=123|54=1|55=LNUX|58=Cancel My Order!|10=203|8=FIX.4.4|9=105|35=D|34=7|49=CLIENT1|52=20180315-07:09:47.628|56=EXECUTOR|11=321|41=123|54=1|55=LNUX|58=Cancel My Order!|10=212|8=FIX.4.4|9=105|35=D|34=8|49=CLIENT1|52=20180315-07:09:47.876|56=EXECUTOR|11=321|41=123|54=1|55=LNUX|58=Cancel My Order!|10=218|8=FIX.4.4|9=105|35=D|34=9|49=CLIENT1|52=20180315-07:09:48.327|56=EXECUTOR|11=321|41=123|54=1|55=LNUX|58=Cancel My Order!|10=211|8=FIX.4.4|9=68|35=1|34=10|49=CLIENT1|52=20180315-07:10:17.778|56=EXECUTOR|112=TEST|10=134|8=FIX.4.4|9=59|35=0|34=11|49=CLIENT1|52=20180315-07:10:47.778|56=EXECUTOR|10=119|8=FIX.4.4|9=68|35=1|34=12|49=CLIENT1|52=20180315-07:10:53.778|56=EXECUTOR|112=TEST|10=136|8=FIX.4.4|9=59|35=0|34=13|49=CLIENT1|52=20180315-07:11:23.778|56=EXECUTOR|10=116|8=FIX.4.4|9=68|35=1|34=14|49=CLIENT1|52=20180315-07:11:49.778|56=EXECUTOR|112=TEST|10=144|8=FIX.4.4|9=59|35=0|34=15|49=CLIENT1|52=20180315-07:12:19.778|56=EXECUTOR|10=124|8=FIX.4.4|9=68|35=1|34=16|49=CLIENT1|52=20180315-07:12:26.778|56=EXECUTOR|112=TEST|10=142|8=FIX.4.4|9=59|35=0|34=17|49=CLIENT1|52=20180315-07:12:56.778|56=EXECUTOR|10=127|8=FIX.4.4|9=59|35=0|34=18|49=CLIENT1|52=20180315-07:13:26.778|56=EXECUTOR|10=126|8=FIX.4.4|9=68|35=1|34=19|49=CLIENT1|52=20180315-07:13:29.779|56=EXECUTOR|112=TEST|10=150|8=FIX.4.4|9=59|35=0|34=20|49=CLIENT1|52=20180315-07:13:59.779|56=EXECUTOR|10=126|8=FIX.4.4|9=68|35=1|34=21|49=CLIENT1|52=20180315-07:14:05.779|56=EXECUTOR|112=TEST|10=138|8=FIX.4.4|9=59|35=0|34=22|49=CLIENT1|52=20180315-07:14:35.779|56=EXECUTOR|10=123|8=FIX.4.4|9=59|35=0|34=23|49=CLIENT1|52=20180315-07:15:05.779|56=EXECUTOR|10=122|8=FIX.4.4|9=68|35=1|34=24|49=CLIENT1|52=20180315-07:15:09.779|56=EXECUTOR|112=TEST|10=146|8=FIX.4.4|9=59|35=0|34=25|49=CLIENT1|52=20180315-07:15:39.780|56=EXECUTOR|10=123|8=FIX.4.4|9=68|35=1|34=26|49=CLIENT1|52=20180315-07:15:45.780|56=EXECUTOR|112=TEST|10=140|8=FIX.4.4|9=59|35=0|34=27|49=CLIENT1|52=20180315-07:16:15.780|56=EXECUTOR|10=120|8=FIX.4.4|9=59|35=0|34=28|49=CLIENT1|52=20180315-07:16:45.780|56=EXECUTOR|10=124|8=FIX.4.4|9=68|35=1|34=29|49=CLIENT1|52=20180315-07:16:49.780|56=EXECUTOR|112=TEST|10=148|8=FIX.4.4|9=59|35=0|34=30|49=CLIENT1|52=20180315-07:17:19.780|56=EXECUTOR|10=119|8=FIX.4.4|9=68|35=1|34=31|49=CLIENT1|52=20180315-07:17:25.780|56=EXECUTOR|112=TEST|10=136|8=FIX.4.4|9=59|35=0|34=32|49=CLIENT1|52=20180315-07:17:55.780|56=EXECUTOR|10=121|8=FIX.4.4|9=59|35=0|34=33|49=CLIENT1|52=20180315-07:18:25.780|56=EXECUTOR|10=120|8=FIX.4.4|9=68|35=1|34=34|49=CLIENT1|52=20180315-07:18:29.780|56=EXECUTOR|112=TEST|10=144|8=FIX.4.4|9=59|35=0|34=35|49=CLIENT1|52=20180315-07:18:59.780|56=EXECUTOR|10=129|8=FIX.4.4|9=68|35=1|34=36|49=CLIENT1|52=20180315-07:19:05.780|56=EXECUTOR|112=TEST|10=141|8=FIX.4.4|9=59|35=0|34=37|49=CLIENT1|52=20180315-07:19:35.780|56=EXECUTOR|10=126|8=FIX.4.4|9=59|35=0|34=38|49=CLIENT1|52=20180315-07:20:05.780|56=EXECUTOR|10=116|8=FIX.4.4|9=68|35=1|34=39|49=CLIENT1|52=20180315-07:20:09.780|56=EXECUTOR|112=TEST|10=140|8=FIX.4.4|9=59|35=0|34=40|49=CLIENT1|52=20180315-07:20:39.780|56=EXECUTOR|10=116|8=FIX.4.4|9=68|35=1|34=41|49=CLIENT1|52=20180315-07:20:45.780|56=EXECUTOR|112=TEST|10=133|8=FIX.4.4|9=59|35=0|34=42|49=CLIENT1|52=20180315-07:21:15.780|56=EXECUTOR|10=113|8=FIX.4.4|9=59|35=0|34=43|49=CLIENT1|52=20180315-07:21:45.780|56=EXECUTOR|10=117|8=FIX.4.4|9=68|35=1|34=44|49=CLIENT1|52=20180315-07:21:49.780|56=EXECUTOR|112=TEST|10=141|8=FIX.4.4|9=59|35=0|34=45|49=CLIENT1|52=20180315-07:22:19.780|56=EXECUTOR|10=121|8=FIX.4.4|9=68|35=1|34=46|49=CLIENT1|52=20180315-07:22:25.780|56=EXECUTOR|112=TEST|10=138|8=FIX.4.4|9=59|35=0|34=47|49=CLIENT1|52=20180315-07:22:55.780|56=EXECUTOR|10=123|8=FIX.4.4|9=59|35=0|34=48|49=CLIENT1|52=20180315-07:23:25.780|56=EXECUTOR|10=122|8=FIX.4.4|9=68|35=1|34=49|49=CLIENT1|52=20180315-07:23:29.780|56=EXECUTOR|112=TEST|10=146|8=FIX.4.4|9=59|35=0|34=50|49=CLIENT1|52=20180315-07:23:59.780|56=EXECUTOR|10=122|8=FIX.4.4|9=68|35=1|34=51|49=CLIENT1|52=20180315-07:24:05.780|56=EXECUTOR|112=TEST|10=134|8=FIX.4.4|9=59|35=0|34=52|49=CLIENT1|52=20180315-07:24:35.780|56=EXECUTOR|10=119|8=FIX.4.4|9=59|35=0|34=53|49=CLIENT1|52=20180315-07:25:05.780|56=EXECUTOR|10=118|8=FIX.4.4|9=68|35=1|34=54|49=CLIENT1|52=20180315-07:25:09.780|56=EXECUTOR|112=TEST|10=142|8=FIX.4.4|9=59|35=0|34=55|49=CLIENT1|52=20180315-07:25:39.793|56=EXECUTOR|10=131|8=FIX.4.4|9=68|35=1|34=56|49=CLIENT1|52=20180315-07:25:45.793|56=EXECUTOR|112=TEST|10=148|8=FIX.4.4|9=59|35=0|34=57|49=CLIENT1|52=20180315-07:26:15.793|56=EXECUTOR|10=128|8=FIX.4.4|9=59|35=0|34=58|49=CLIENT1|52=20180315-07:26:45.793|56=EXECUTOR|10=132|8=FIX.4.4|9=68|35=1|34=59|49=CLIENT1|52=20180315-07:26:49.793|56=EXECUTOR|112=TEST|10=156|8=FIX.4.4|9=59|35=0|34=60|49=CLIENT1|52=20180315-07:27:19.793|56=EXECUTOR|10=127|8=FIX.4.4|9=68|35=1|34=61|49=CLIENT1|52=20180315-07:27:25.793|56=EXECUTOR|112=TEST|10=144|8=FIX.4.4|9=59|35=0|34=62|49=CLIENT1|52=20180315-07:27:55.794|56=EXECUTOR|10=130|8=FIX.4.4|9=59|35=0|34=63|49=CLIENT1|52=20180315-07:28:25.794|56=EXECUTOR|10=129|8=FIX.4.4|9=68|35=1|34=64|49=CLIENT1|52=20180315-07:28:29.794|56=EXECUTOR|112=TEST|10=153|8=FIX.4.4|9=59|35=0|34=65|49=CLIENT1|52=20180315-07:28:59.794|56=EXECUTOR|10=138|8=FIX.4.4|9=68|35=1|34=66|49=CLIENT1|52=20180315-07:29:05.794|56=EXECUTOR|112=TEST|10=150|8=FIX.4.4|9=59|35=0|34=67|49=CLIENT1|52=20180315-07:29:35.794|56=EXECUTOR|10=135|8=FIX.4.4|9=59|35=0|34=68|49=CLIENT1|52=20180315-07:30:05.794|56=EXECUTOR|10=125|8=FIX.4.4|9=68|35=1|34=69|49=CLIENT1|52=20180315-07:30:09.794|56=EXECUTOR|112=TEST|10=149|8=FIX.4.4|9=59|35=0|34=70|49=CLIENT1|52=20180315-07:30:39.794|56=EXECUTOR|10=125|8=FIX.4.4|9=68|35=1|34=71|49=CLIENT1|52=20180315-07:30:45.794|56=EXECUTOR|112=TEST|10=142|8=FIX.4.4|9=59|35=0|34=72|49=CLIENT1|52=20180315-07:31:15.794|56=EXECUTOR|10=122|8=FIX.4.4|9=59|35=0|34=73|49=CLIENT1|52=20180315-07:31:45.794|56=EXECUTOR|10=126|8=FIX.4.4|9=68|35=1|34=74|49=CLIENT1|52=20180315-07:31:49.794|56=EXECUTOR|112=TEST|10=150|8=FIX.4.4|9=59|35=0|34=75|49=CLIENT1|52=20180315-07:32:19.794|56=EXECUTOR|10=130|8=FIX.4.4|9=68|35=1|34=76|49=CLIENT1|52=20180315-07:32:25.794|56=EXECUTOR|112=TEST|10=147|8=FIX.4.4|9=59|35=0|34=77|49=CLIENT1|52=20180315-07:32:55.794|56=EXECUTOR|10=132|8=FIX.4.4|9=59|35=0|34=78|49=CLIENT1|52=20180315-07:33:25.794|56=EXECUTOR|10=131|8=FIX.4.4|9=68|35=1|34=79|49=CLIENT1|52=20180315-07:33:29.794|56=EXECUTOR|112=TEST|10=155|8=FIX.4.4|9=59|35=0|34=80|49=CLIENT1|52=20180315-07:33:59.794|56=EXECUTOR|10=131|8=FIX.4.4|9=68|35=1|34=81|49=CLIENT1|52=20180315-07:34:05.794|56=EXECUTOR|112=TEST|10=143|8=FIX.4.4|9=59|35=0|34=82|49=CLIENT1|52=20180315-07:34:35.794|56=EXECUTOR|10=128|8=FIX.4.4|9=59|35=0|34=83|49=CLIENT1|52=20180315-07:35:05.794|56=EXECUTOR|10=127|8=FIX.4.4|9=68|35=1|34=84|49=CLIENT1|52=20180315-07:35:09.794|56=EXECUTOR|112=TEST|10=151|8=FIX.4.4|9=59|35=0|34=85|49=CLIENT1|52=20180315-07:35:39.794|56=EXECUTOR|10=136|8=FIX.4.4|9=68|35=1|34=86|49=CLIENT1|52=20180315-07:35:45.794|56=EXECUTOR|112=TEST|10=153|8=FIX.4.4|9=59|35=0|34=87|49=CLIENT1|52=20180315-07:36:15.794|56=EXECUTOR|10=133|8=FIX.4.4|9=59|35=0|34=88|49=CLIENT1|52=20180315-07:36:45.794|56=EXECUTOR|10=137|8=FIX.4.4|9=68|35=1|34=89|49=CLIENT1|52=20180315-07:36:49.794|56=EXECUTOR|112=TEST|10=161|8=FIX.4.4|9=59|35=0|34=90|49=CLIENT1|52=20180315-07:37:19.794|56=EXECUTOR|10=132|8=FIX.4.4|9=68|35=1|34=91|49=CLIENT1|52=20180315-07:37:25.794|56=EXECUTOR|112=TEST|10=149|8=FIX.4.4|9=59|35=0|34=92|49=CLIENT1|52=20180315-07:37:55.794|56=EXECUTOR|10=134|8=FIX.4.4|9=59|35=0|34=93|49=CLIENT1|52=20180315-07:38:25.794|56=EXECUTOR|10=133|8=FIX.4.4|9=68|35=1|34=94|49=CLIENT1|52=20180315-07:38:29.794|56=EXECUTOR|112=TEST|10=157|8=FIX.4.4|9=59|35=0|34=95|49=CLIENT1|52=20180315-07:38:59.794|56=EXECUTOR|10=142|8=FIX.4.4|9=68|35=1|34=96|49=CLIENT1|52=20180315-07:39:05.794|56=EXECUTOR|112=TEST|10=154|8=FIX.4.4|9=59|35=0|34=97|49=CLIENT1|52=20180315-07:39:35.795|56=EXECUTOR|10=140|8=FIX.4.4|9=59|35=0|34=98|49=CLIENT1|52=20180315-07:40:05.795|56=EXECUTOR|10=130|8=FIX.4.4|9=68|35=1|34=99|49=CLIENT1|52=20180315-07:40:09.795|56=EXECUTOR|112=TEST|10=154|8=FIX.4.4|9=60|35=0|34=100|49=CLIENT1|52=20180315-07:40:39.795|56=EXECUTOR|10=161|8=FIX.4.4|9=69|35=1|34=101|49=CLIENT1|52=20180315-07:40:45.795|56=EXECUTOR|112=TEST|10=187|8=FIX.4.4|9=60|35=0|34=102|49=CLIENT1|52=20180315-07:41:15.795|56=EXECUTOR|10=158|8=FIX.4.4|9=60|35=0|34=103|49=CLIENT1|52=20180315-07:41:45.795|56=EXECUTOR|10=162|8=FIX.4.4|9=69|35=1|34=104|49=CLIENT1|52=20180315-07:41:49.795|56=EXECUTOR|112=TEST|10=195|8=FIX.4.4|9=60|35=0|34=105|49=CLIENT1|52=20180315-07:42:19.795|56=EXECUTOR|10=166|8=FIX.4.4|9=69|35=1|34=106|49=CLIENT1|52=20180315-07:42:25.795|56=EXECUTOR|112=TEST|10=192|8=FIX.4.4|9=60|35=0|34=107|49=CLIENT1|52=20180315-07:42:55.795|56=EXECUTOR|10=168|8=FIX.4.4|9=60|35=0|34=108|49=CLIENT1|52=20180315-07:43:25.795|56=EXECUTOR|10=167|8=FIX.4.4|9=69|35=1|34=109|49=CLIENT1|52=20180315-07:43:29.795|56=EXECUTOR|112=TEST|10=200|8=FIX.4.4|9=60|35=0|34=110|49=CLIENT1|52=20180315-07:43:59.795|56=EXECUTOR|10=167|8=FIX.4.4|9=69|35=1|34=111|49=CLIENT1|52=20180315-07:44:05.795|56=EXECUTOR|112=TEST|10=188|8=FIX.4.4|9=60|35=0|34=112|49=CLIENT1|52=20180315-07:44:35.795|56=EXECUTOR|10=164|8=FIX.4.4|9=60|35=0|34=113|49=CLIENT1|52=20180315-07:45:05.795|56=EXECUTOR|10=163|8=FIX.4.4|9=69|35=1|34=114|49=CLIENT1|52=20180315-07:45:09.795|56=EXECUTOR|112=TEST|10=196|8=FIX.4.4|9=60|35=0|34=115|49=CLIENT1|52=20180315-07:45:39.796|56=EXECUTOR|10=173|8=FIX.4.4|9=69|35=1|34=116|49=CLIENT1|52=20180315-07:45:45.796|56=EXECUTOR|112=TEST|10=199|8=FIX.4.4|9=60|35=0|34=117|49=CLIENT1|52=20180315-07:46:15.796|56=EXECUTOR|10=170|8=FIX.4.4|9=60|35=0|34=118|49=CLIENT1|52=20180315-07:46:45.796|56=EXECUTOR|10=174|8=FIX.4.4|9=69|35=1|34=119|49=CLIENT1|52=20180315-07:46:49.796|56=EXECUTOR|112=TEST|10=207|8=FIX.4.4|9=60|35=0|34=120|49=CLIENT1|52=20180315-07:47:19.796|56=EXECUTOR|10=169|8=FIX.4.4|9=69|35=1|34=121|49=CLIENT1|52=20180315-07:47:25.796|56=EXECUTOR|112=TEST|10=195|8=FIX.4.4|9=60|35=0|34=122|49=CLIENT1|52=20180315-07:47:55.796|56=EXECUTOR|10=171|8=FIX.4.4|9=60|35=0|34=123|49=CLIENT1|52=20180315-07:48:25.796|56=EXECUTOR|10=170|8=FIX.4.4|9=69|35=1|34=124|49=CLIENT1|52=20180315-07:48:29.796|56=EXECUTOR|112=TEST|10=203|8=FIX.4.4|9=60|35=0|34=125|49=CLIENT1|52=20180315-07:48:59.796|56=EXECUTOR|10=179|8=FIX.4.4|9=69|35=1|34=126|49=CLIENT1|52=20180315-07:49:05.796|56=EXECUTOR|112=TEST|10=200|8=FIX.4.4|9=60|35=0|34=127|49=CLIENT1|52=20180315-07:49:35.796|56=EXECUTOR|10=176|8=FIX.4.4|9=60|35=0|34=128|49=CLIENT1|52=20180315-07:50:05.796|56=EXECUTOR|10=166|8=FIX.4.4|9=69|35=1|34=129|49=CLIENT1|52=20180315-07:50:09.796|56=EXECUTOR|112=TEST|10=199|8=FIX.4.4|9=60|35=0|34=130|49=CLIENT1|52=20180315-07:50:39.796|56=EXECUTOR|10=166|8=FIX.4.4|9=69|35=1|34=131|49=CLIENT1|52=20180315-07:50:45.796|56=EXECUTOR|112=TEST|10=192|8=FIX.4.4|9=60|35=0|34=132|49=CLIENT1|52=20180315-07:51:15.796|56=EXECUTOR|10=163|8=FIX.4.4|9=60|35=0|34=133|49=CLIENT1|52=20180315-07:51:45.796|56=EXECUTOR|10=167|8=FIX.4.4|9=69|35=1|34=134|49=CLIENT1|52=20180315-07:51:49.796|56=EXECUTOR|112=TEST|10=200|8=FIX.4.4|9=60|35=0|34=135|49=CLIENT1|52=20180315-07:52:19.796|56=EXECUTOR|10=171|8=FIX.4.4|9=69|35=1|34=136|49=CLIENT1|52=20180315-07:52:25.796|56=EXECUTOR|112=TEST|10=197|8=FIX.4.4|9=60|35=0|34=137|49=CLIENT1|52=20180315-07:52:55.796|56=EXECUTOR|10=173|8=FIX.4.4|9=60|35=0|34=138|49=CLIENT1|52=20180315-07:53:25.796|56=EXECUTOR|10=172|8=FIX.4.4|9=69|35=1|34=139|49=CLIENT1|52=20180315-07:53:29.796|56=EXECUTOR|112=TEST|10=205|8=FIX.4.4|9=60|35=0|34=140|49=CLIENT1|52=20180315-07:53:59.796|56=EXECUTOR|10=172|8=FIX.4.4|9=69|35=1|34=141|49=CLIENT1|52=20180315-07:54:05.796|56=EXECUTOR|112=TEST|10=193|8=FIX.4.4|9=60|35=0|34=142|49=CLIENT1|52=20180315-07:54:35.796|56=EXECUTOR|10=169|8=FIX.4.4|9=60|35=0|34=143|49=CLIENT1|52=20180315-07:55:05.796|56=EXECUTOR|10=168|8=FIX.4.4|9=69|35=1|34=144|49=CLIENT1|52=20180315-07:55:09.796|56=EXECUTOR|112=TEST|10=201|8=FIX.4.4|9=60|35=0|34=145|49=CLIENT1|52=20180315-07:55:39.796|56=EXECUTOR|10=177|8=FIX.4.4|9=69|35=1|34=146|49=CLIENT1|52=20180315-07:55:45.796|56=EXECUTOR|112=TEST|10=203|8=FIX.4.4|9=60|35=0|34=147|49=CLIENT1|52=20180315-07:56:15.796|56=EXECUTOR|10=174|8=FIX.4.4|9=60|35=0|34=148|49=CLIENT1|52=20180315-07:56:45.796|56=EXECUTOR|10=178|8=FIX.4.4|9=69|35=1|34=149|49=CLIENT1|52=20180315-07:56:49.796|56=EXECUTOR|112=TEST|10=211|8=FIX.4.4|9=60|35=0|34=150|49=CLIENT1|52=20180315-07:57:19.796|56=EXECUTOR|10=173|8=FIX.4.4|9=69|35=1|34=151|49=CLIENT1|52=20180315-07:57:25.796|56=EXECUTOR|112=TEST|10=199|8=FIX.4.4|9=60|35=0|34=152|49=CLIENT1|52=20180315-07:57:55.796|56=EXECUTOR|10=175|8=FIX.4.4|9=60|35=0|34=153|49=CLIENT1|52=20180315-07:58:25.796|56=EXECUTOR|10=174|8=FIX.4.4|9=69|35=1|34=154|49=CLIENT1|52=20180315-07:58:29.796|56=EXECUTOR|112=TEST|10=207|8=FIX.4.4|9=60|35=0|34=155|49=CLIENT1|52=20180315-07:58:59.796|56=EXECUTOR|10=183|8=FIX.4.4|9=69|35=1|34=156|49=CLIENT1|52=20180315-07:59:05.796|56=EXECUTOR|112=TEST|10=204|8=FIX.4.4|9=60|35=0|34=157|49=CLIENT1|52=20180315-07:59:35.799|56=EXECUTOR|10=183|8=FIX.4.4|9=60|35=0|34=158|49=CLIENT1|52=20180315-08:00:05.799|56=EXECUTOR|10=168|8=FIX.4.4|9=69|35=1|34=159|49=CLIENT1|52=20180315-08:00:09.799|56=EXECUTOR|112=TEST|10=201|8=FIX.4.4|9=60|35=0|34=160|49=CLIENT1|52=20180315-08:00:39.799|56=EXECUTOR|10=168|8=FIX.4.4|9=69|35=1|34=161|49=CLIENT1|52=20180315-08:00:45.799|56=EXECUTOR|112=TEST|10=194|8=FIX.4.4|9=60|35=0|34=162|49=CLIENT1|52=20180315-08:01:15.799|56=EXECUTOR|10=165|8=FIX.4.4|9=60|35=0|34=163|49=CLIENT1|52=20180315-08:01:45.799|56=EXECUTOR|10=169|8=FIX.4.4|9=69|35=1|34=164|49=CLIENT1|52=20180315-08:01:49.799|56=EXECUTOR|112=TEST|10=202|8=FIX.4.4|9=60|35=0|34=165|49=CLIENT1|52=20180315-08:02:19.799|56=EXECUTOR|10=173|8=FIX.4.4|9=69|35=1|34=166|49=CLIENT1|52=20180315-08:02:25.799|56=EXECUTOR|112=TEST|10=199|8=FIX.4.4|9=60|35=0|34=167|49=CLIENT1|52=20180315-08:02:55.799|56=EXECUTOR|10=175|8=FIX.4.4|9=60|35=0|34=168|49=CLIENT1|52=20180315-08:03:25.799|56=EXECUTOR|10=174|8=FIX.4.4|9=69|35=1|34=169|49=CLIENT1|52=20180315-08:03:29.799|56=EXECUTOR|112=TEST|10=207|8=FIX.4.4|9=60|35=0|34=170|49=CLIENT1|52=20180315-08:03:59.799|56=EXECUTOR|10=174|8=FIX.4.4|9=69|35=1|34=171|49=CLIENT1|52=20180315-08:04:05.799|56=EXECUTOR|112=TEST|10=195|8=FIX.4.4|9=60|35=0|34=172|49=CLIENT1|52=20180315-08:04:35.799|56=EXECUTOR|10=171|8=FIX.4.4|9=60|35=0|34=173|49=CLIENT1|52=20180315-08:05:05.799|56=EXECUTOR|10=170|8=FIX.4.4|9=69|35=1|34=174|49=CLIENT1|52=20180315-08:05:09.799|56=EXECUTOR|112=TEST|10=203|8=FIX.4.4|9=60|35=0|34=175|49=CLIENT1|52=20180315-08:05:39.800|56=EXECUTOR|10=162|8=FIX.4.4|9=69|35=1|34=176|49=CLIENT1|52=20180315-08:05:45.800|56=EXECUTOR|112=TEST|10=188|8=FIX.4.4|9=60|35=0|34=177|49=CLIENT1|52=20180315-08:06:15.800|56=EXECUTOR|10=159|8=FIX.4.4|9=60|35=0|34=178|49=CLIENT1|52=20180315-08:06:45.800|56=EXECUTOR|10=163|8=FIX.4.4|9=69|35=1|34=179|49=CLIENT1|52=20180315-08:06:49.800|56=EXECUTOR|112=TEST|10=196|8=FIX.4.4|9=60|35=0|34=180|49=CLIENT1|52=20180315-08:07:19.800|56=EXECUTOR|10=158|8=FIX.4.4|9=69|35=1|34=181|49=CLIENT1|52=20180315-08:07:25.800|56=EXECUTOR|112=TEST|10=184|8=FIX.4.4|9=60|35=0|34=182|49=CLIENT1|52=20180315-08:07:55.800|56=EXECUTOR|10=160|8=FIX.4.4|9=60|35=0|34=183|49=CLIENT1|52=20180315-08:08:25.800|56=EXECUTOR|10=159|8=FIX.4.4|9=69|35=1|34=184|49=CLIENT1|52=20180315-08:08:29.800|56=EXECUTOR|112=TEST|10=192|8=FIX.4.4|9=60|35=0|34=185|49=CLIENT1|52=20180315-08:08:59.800|56=EXECUTOR|10=168|8=FIX.4.4|9=69|35=1|34=186|49=CLIENT1|52=20180315-08:09:05.800|56=EXECUTOR|112=TEST|10=189|8=FIX.4.4|9=60|35=0|34=187|49=CLIENT1|52=20180315-08:09:35.802|56=EXECUTOR|10=167|8=FIX.4.4|9=60|35=0|34=188|49=CLIENT1|52=20180315-08:10:05.803|56=EXECUTOR|10=158|8=FIX.4.4|9=69|35=1|34=189|49=CLIENT1|52=20180315-08:10:09.803|56=EXECUTOR|112=TEST|10=191|8=FIX.4.4|9=60|35=0|34=190|49=CLIENT1|52=20180315-08:10:39.803|56=EXECUTOR|10=158|8=FIX.4.4|9=69|35=1|34=191|49=CLIENT1|52=20180315-08:10:45.803|56=EXECUTOR|112=TEST|10=184|8=FIX.4.4|9=60|35=0|34=192|49=CLIENT1|52=20180315-08:11:15.803|56=EXECUTOR|10=155|8=FIX.4.4|9=60|35=0|34=193|49=CLIENT1|52=20180315-08:11:45.803|56=EXECUTOR|10=159|8=FIX.4.4|9=69|35=1|34=194|49=CLIENT1|52=20180315-08:11:49.803|56=EXECUTOR|112=TEST|10=192|8=FIX.4.4|9=60|35=0|34=195|49=CLIENT1|52=20180315-08:12:19.803|56=EXECUTOR|10=163|8=FIX.4.4|9=69|35=1|34=196|49=CLIENT1|52=20180315-08:12:25.803|56=EXECUTOR|112=TEST|10=189|8=FIX.4.4|9=60|35=0|34=197|49=CLIENT1|52=20180315-08:12:55.803|56=EXECUTOR|10=165|8=FIX.4.4|9=60|35=0|34=198|49=CLIENT1|52=20180315-08:13:25.803|56=EXECUTOR|10=164|8=FIX.4.4|9=69|35=1|34=199|49=CLIENT1|52=20180315-08:13:29.803|56=EXECUTOR|112=TEST|10=197|8=FIX.4.4|9=60|35=0|34=200|49=CLIENT1|52=20180315-08:13:59.803|56=EXECUTOR|10=155|8=FIX.4.4|9=69|35=1|34=201|49=CLIENT1|52=20180315-08:14:05.803|56=EXECUTOR|112=TEST|10=176|8=FIX.4.4|9=60|35=0|34=202|49=CLIENT1|52=20180315-08:14:35.803|56=EXECUTOR|10=152|8=FIX.4.4|9=60|35=0|34=203|49=CLIENT1|52=20180315-08:15:05.803|56=EXECUTOR|10=151|8=FIX.4.4|9=69|35=1|34=204|49=CLIENT1|52=20180315-08:15:09.803|56=EXECUTOR|112=TEST|10=184|8=FIX.4.4|9=60|35=0|34=205|49=CLIENT1|52=20180315-08:15:39.803|56=EXECUTOR|10=160|8=FIX.4.4|9=69|35=1|34=206|49=CLIENT1|52=20180315-08:15:45.803|56=EXECUTOR|112=TEST|10=186|8=FIX.4.4|9=60|35=0|34=207|49=CLIENT1|52=20180315-08:16:15.803|56=EXECUTOR|10=157|8=FIX.4.4|9=60|35=0|34=208|49=CLIENT1|52=20180315-08:16:45.803|56=EXECUTOR|10=161|8=FIX.4.4|9=69|35=1|34=209|49=CLIENT1|52=20180315-08:16:49.803|56=EXECUTOR|112=TEST|10=194|8=FIX.4.4|9=60|35=0|34=210|49=CLIENT1|52=20180315-08:17:19.803|56=EXECUTOR|10=156|8=FIX.4.4|9=69|35=1|34=211|49=CLIENT1|52=20180315-08:17:25.803|56=EXECUTOR|112=TEST|10=182|8=FIX.4.4|9=60|35=0|34=212|49=CLIENT1|52=20180315-08:17:55.803|56=EXECUTOR|10=158|8=FIX.4.4|9=60|35=0|34=213|49=CLIENT1|52=20180315-08:18:25.803|56=EXECUTOR|10=157|8=FIX.4.4|9=69|35=1|34=214|49=CLIENT1|52=20180315-08:18:29.803|56=EXECUTOR|112=TEST|10=190|8=FIX.4.4|9=60|35=0|34=215|49=CLIENT1|52=20180315-08:18:59.803|56=EXECUTOR|10=166|8=FIX.4.4|9=69|35=1|34=216|49=CLIENT1|52=20180315-08:19:05.803|56=EXECUTOR|112=TEST|10=187|8=FIX.4.4|9=60|35=0|34=217|49=CLIENT1|52=20180315-08:19:35.803|56=EXECUTOR|10=163|8=FIX.4.4|9=60|35=0|34=218|49=CLIENT1|52=20180315-08:20:05.803|56=EXECUTOR|10=153|8=FIX.4.4|9=69|35=1|34=219|49=CLIENT1|52=20180315-08:20:09.803|56=EXECUTOR|112=TEST|10=186|8=FIX.4.4|9=60|35=0|34=220|49=CLIENT1|52=20180315-08:20:39.803|56=EXECUTOR|10=153|8=FIX.4.4|9=69|35=1|34=221|49=CLIENT1|52=20180315-08:20:45.803|56=EXECUTOR|112=TEST|10=179|8=FIX.4.4|9=60|35=0|34=222|49=CLIENT1|52=20180315-08:21:15.803|56=EXECUTOR|10=150|8=FIX.4.4|9=60|35=0|34=223|49=CLIENT1|52=20180315-08:21:45.803|56=EXECUTOR|10=154|8=FIX.4.4|9=69|35=1|34=224|49=CLIENT1|52=20180315-08:21:49.803|56=EXECUTOR|112=TEST|10=187|8=FIX.4.4|9=60|35=0|34=225|49=CLIENT1|52=20180315-08:22:19.803|56=EXECUTOR|10=158|8=FIX.4.4|9=69|35=1|34=226|49=CLIENT1|52=20180315-08:22:25.803|56=EXECUTOR|112=TEST|10=184|8=FIX.4.4|9=60|35=0|34=227|49=CLIENT1|52=20180315-08:22:55.803|56=EXECUTOR|10=160|8=FIX.4.4|9=60|35=0|34=228|49=CLIENT1|52=20180315-08:23:25.803|56=EXECUTOR|10=159|8=FIX.4.4|9=69|35=1|34=229|49=CLIENT1|52=20180315-08:23:29.803|56=EXECUTOR|112=TEST|10=192|8=FIX.4.4|9=60|35=0|34=230|49=CLIENT1|52=20180315-08:23:59.803|56=EXECUTOR|10=159|8=FIX.4.4|9=69|35=1|34=231|49=CLIENT1|52=20180315-08:24:05.803|56=EXECUTOR|112=TEST|10=180|8=FIX.4.4|9=60|35=0|34=232|49=CLIENT1|52=20180315-08:24:35.803|56=EXECUTOR|10=156|8=FIX.4.4|9=60|35=0|34=233|49=CLIENT1|52=20180315-08:25:05.803|56=EXECUTOR|10=155|8=FIX.4.4|9=69|35=1|34=234|49=CLIENT1|52=20180315-08:25:09.803|56=EXECUTOR|112=TEST|10=188|8=FIX.4.4|9=60|35=0|34=235|49=CLIENT1|52=20180315-08:25:39.803|56=EXECUTOR|10=164|8=FIX.4.4|9=69|35=1|34=236|49=CLIENT1|52=20180315-08:25:45.803|56=EXECUTOR|112=TEST|10=190|8=FIX.4.4|9=60|35=0|34=237|49=CLIENT1|52=20180315-08:26:15.803|56=EXECUTOR|10=161|8=FIX.4.4|9=60|35=0|34=238|49=CLIENT1|52=20180315-08:26:45.803|56=EXECUTOR|10=165|8=FIX.4.4|9=69|35=1|34=239|49=CLIENT1|52=20180315-08:26:49.803|56=EXECUTOR|112=TEST|10=198|8=FIX.4.4|9=60|35=0|34=240|49=CLIENT1|52=20180315-08:27:19.803|56=EXECUTOR|10=160|8=FIX.4.4|9=69|35=1|34=241|49=CLIENT1|52=20180315-08:27:25.803|56=EXECUTOR|112=TEST|10=186|8=FIX.4.4|9=60|35=0|34=242|49=CLIENT1|52=20180315-08:27:55.803|56=EXECUTOR|10=162|8=FIX.4.4|9=60|35=0|34=243|49=CLIENT1|52=20180315-08:28:25.803|56=EXECUTOR|10=161|8=FIX.4.4|9=69|35=1|34=244|49=CLIENT1|52=20180315-08:28:29.803|56=EXECUTOR|112=TEST|10=194|8=FIX.4.4|9=60|35=0|34=245|49=CLIENT1|52=20180315-08:28:59.803|56=EXECUTOR|10=170|8=FIX.4.4|9=69|35=1|34=246|49=CLIENT1|52=20180315-08:29:05.803|56=EXECUTOR|112=TEST|10=191|8=FIX.4.4|9=60|35=0|34=247|49=CLIENT1|52=20180315-08:29:35.803|56=EXECUTOR|10=167|8=FIX.4.4|9=60|35=0|34=248|49=CLIENT1|52=20180315-08:30:05.803|56=EXECUTOR|10=157|8=FIX.4.4|9=69|35=1|34=249|49=CLIENT1|52=20180315-08:30:09.803|56=EXECUTOR|112=TEST|10=190|8=FIX.4.4|9=60|35=0|34=250|49=CLIENT1|52=20180315-08:30:39.803|56=EXECUTOR|10=157|8=FIX.4.4|9=69|35=1|34=251|49=CLIENT1|52=20180315-08:30:45.803|56=EXECUTOR|112=TEST|10=183|8=FIX.4.4|9=60|35=0|34=252|49=CLIENT1|52=20180315-08:31:15.803|56=EXECUTOR|10=154|8=FIX.4.4|9=60|35=0|34=253|49=CLIENT1|52=20180315-08:31:45.803|56=EXECUTOR|10=158|8=FIX.4.4|9=69|35=1|34=254|49=CLIENT1|52=20180315-08:31:49.803|56=EXECUTOR|112=TEST|10=191|8=FIX.4.4|9=60|35=0|34=255|49=CLIENT1|52=20180315-08:32:19.803|56=EXECUTOR|10=162|8=FIX.4.4|9=69|35=1|34=256|49=CLIENT1|52=20180315-08:32:25.803|56=EXECUTOR|112=TEST|10=188|8=FIX.4.4|9=60|35=0|34=257|49=CLIENT1|52=20180315-08:32:55.803|56=EXECUTOR|10=164|8=FIX.4.4|9=60|35=0|34=258|49=CLIENT1|52=20180315-08:33:25.803|56=EXECUTOR|10=163|8=FIX.4.4|9=69|35=1|34=259|49=CLIENT1|52=20180315-08:33:29.803|56=EXECUTOR|112=TEST|10=196|8=FIX.4.4|9=60|35=0|34=260|49=CLIENT1|52=20180315-08:33:59.803|56=EXECUTOR|10=163|8=FIX.4.4|9=69|35=1|34=261|49=CLIENT1|52=20180315-08:34:05.803|56=EXECUTOR|112=TEST|10=184|8=FIX.4.4|9=60|35=0|34=262|49=CLIENT1|52=20180315-08:34:35.803|56=EXECUTOR|10=160|8=FIX.4.4|9=60|35=0|34=263|49=CLIENT1|52=20180315-08:35:05.803|56=EXECUTOR|10=159|8=FIX.4.4|9=69|35=1|34=264|49=CLIENT1|52=20180315-08:35:09.803|56=EXECUTOR|112=TEST|10=192|8=FIX.4.4|9=60|35=0|34=265|49=CLIENT1|52=20180315-08:35:39.803|56=EXECUTOR|10=168|8=FIX.4.4|9=69|35=1|34=266|49=CLIENT1|52=20180315-08:35:45.803|56=EXECUTOR|112=TEST|10=194|8=FIX.4.4|9=60|35=0|34=267|49=CLIENT1|52=20180315-08:36:15.803|56=EXECUTOR|10=165|8=FIX.4.4|9=60|35=0|34=268|49=CLIENT1|52=20180315-08:36:45.803|56=EXECUTOR|10=169|8=FIX.4.4|9=69|35=1|34=269|49=CLIENT1|52=20180315-08:36:49.803|56=EXECUTOR|112=TEST|10=202|8=FIX.4.4|9=60|35=0|34=270|49=CLIENT1|52=20180315-08:37:19.803|56=EXECUTOR|10=164|8=FIX.4.4|9=69|35=1|34=271|49=CLIENT1|52=20180315-08:37:25.803|56=EXECUTOR|112=TEST|10=190|8=FIX.4.4|9=60|35=0|34=272|49=CLIENT1|52=20180315-08:37:55.803|56=EXECUTOR|10=166|8=FIX.4.4|9=60|35=0|34=273|49=CLIENT1|52=20180315-08:38:25.803|56=EXECUTOR|10=165|8=FIX.4.4|9=69|35=1|34=274|49=CLIENT1|52=20180315-08:38:29.803|56=EXECUTOR|112=TEST|10=198|8=FIX.4.4|9=60|35=0|34=275|49=CLIENT1|52=20180315-08:38:59.803|56=EXECUTOR|10=174|8=FIX.4.4|9=69|35=1|34=276|49=CLIENT1|52=20180315-08:39:05.803|56=EXECUTOR|112=TEST|10=195|8=FIX.4.4|9=60|35=0|34=277|49=CLIENT1|52=20180315-08:39:35.803|56=EXECUTOR|10=171|8=FIX.4.4|9=60|35=0|34=278|49=CLIENT1|52=20180315-08:40:05.803|56=EXECUTOR|10=161|8=FIX.4.4|9=69|35=1|34=279|49=CLIENT1|52=20180315-08:40:09.803|56=EXECUTOR|112=TEST|10=194|8=FIX.4.4|9=60|35=0|34=280|49=CLIENT1|52=20180315-08:40:39.803|56=EXECUTOR|10=161|8=FIX.4.4|9=69|35=1|34=281|49=CLIENT1|52=20180315-08:40:45.803|56=EXECUTOR|112=TEST|10=187|8=FIX.4.4|9=60|35=0|34=282|49=CLIENT1|52=20180315-08:41:15.803|56=EXECUTOR|10=158|8=FIX.4.4|9=60|35=0|34=283|49=CLIENT1|52=20180315-08:41:45.803|56=EXECUTOR|10=162|8=FIX.4.4|9=69|35=1|34=284|49=CLIENT1|52=20180315-08:41:49.803|56=EXECUTOR|112=TEST|10=195|8=FIX.4.4|9=60|35=0|34=285|49=CLIENT1|52=20180315-08:42:19.803|56=EXECUTOR|10=166|8=FIX.4.4|9=69|35=1|34=286|49=CLIENT1|52=20180315-08:42:25.803|56=EXECUTOR|112=TEST|10=192|8=FIX.4.4|9=60|35=0|34=287|49=CLIENT1|52=20180315-08:42:55.803|56=EXECUTOR|10=168|8=FIX.4.4|9=60|35=0|34=288|49=CLIENT1|52=20180315-08:43:25.803|56=EXECUTOR|10=167|8=FIX.4.4|9=69|35=1|34=289|49=CLIENT1|52=20180315-08:43:29.803|56=EXECUTOR|112=TEST|10=200|8=FIX.4.4|9=60|35=0|34=290|49=CLIENT1|52=20180315-08:43:59.803|56=EXECUTOR|10=167|8=FIX.4.4|9=69|35=1|34=291|49=CLIENT1|52=20180315-08:44:05.803|56=EXECUTOR|112=TEST|10=188|8=FIX.4.4|9=60|35=0|34=292|49=CLIENT1|52=20180315-08:44:35.803|56=EXECUTOR|10=164|